:020000040000fa
:080000000002040000000000f2
:020000040000fa
:0400340000060100c1
:020000040000fa
:0400380000050100be
:020000040000fa
:0400540000010100a6
:020000040000fa
:0400580000020100a1
:020000040000fa
:04007800000401007f
:020000040000fa
:0400ac00000301004c
:020000040000fa
:100400003600fa000e2eef00042eef000080eb0005
:1004100000708800f0002000507088000c2eef0063
:100420001e2eef00142eef000080eb00807088007d
:1004300030002000d07088001c2eef001156800084
:1004400080ff2f00008060001056880010022000fe
:10045000403a8800100b2000303a8800213a800092
:1004600000fe2f00008060003000b300203a8800ba
:10047000213a8000f0f32f0000806000203a8800cd
:100480000000eb00000f78000b0037000000eb00cd
:1004900010079800030037001e0090000000e800dd
:1004a000100798009e009000f0032000808f5000fd
:1004b000f9ff36001e0fe8001e0078000000e00083
:1004c000f2ff3d0010708000ef006000907080002f
:1004d000630060004400dd0001007000400f9800e0
:1004e0000a2eef00ce08900000032000808f5000fd
:1004f000230c3a00f0fb2f0080708800142eef00d0
:1005000050022000203688002134800000f02f00a7
:10051000008060000000a000203488002188a9002d
:100520002168a9000188a9000168a9002142800072
:10053000f0ff28000080600000c0a000204288007a
:100540003142800080ff2f00008060000000a0008a
:10055000304288002022ef002222ef00601a2000a3
:100560004011880021e2a8002342a8005004200086
:100570002011880010002000200798002800370074
:100580000000eb00300798001e0037003000240008
:10059000403988003e0090004a00dd005039880054
:1005a0002e0090006039880011468000510f98009d
:1005b000c3e8a90000000000000000005005200072
:1005c00070398800a00a20007039880029e7a80047
:1005d0000000000000000000000000004139800021
:1005e00000002800008060000000e000fbff3a00ef
:1005f000de089000114688003e0090000000e800f0
:1006000030079800be009000f0032000808f50005b
:10061000deff36002e0090000000e8002007980062
:100620002e009000e40f5000d5ff3400200520007c
:10063000201188000040eb00404f980010c0b3002c
:10064000504f9800b50b37000000000010118000db
:10065000610060000000e000fcff3200301180000b
:10066000405f9800ce589000a0c3b30080cf5000e8
:10067000aa0b3a0000000000101180006100600029
:100680000000e000fcff32003011800000407800e4
:1006900040679800000000001011800061006000b9
:1006a0000000e000fcff32003011800000407800c4
:1006b00050679800ce60900000c4b30080cf500017
:1006c0000a003600ce60900060c4b30080cf5000b6
:1006d00006003e00ce60900090ccb30000c0400009
:1006e0004400dd00804078001c003700ce609000a0
:1006f00000c6b30080cf500009003600ce609000e5
:1007000060c6b30080cf500005003e00ce60900070
:1007100090cab30000c040004400dd000e00370066
:10072000ce609000f0c2b30080cf500009003600c8
:10073000ce60900090c3b30080cf500005003e0013
:10074000ce60900000cdb30000c040004400dd004a
:10075000010037000040eb00804078005e619000af
:1007600000c4b300804f5100080036005e61900065
:1007700060c4b300804f510004003e005e619000f1
:1007800090ccb30000404100190037005e6190003a
:1007900000c6b300804f5100080036005e61900033
:1007a00060c6b300804f510004003e005e619000bf
:1007b00090cab300004041000d0037005e61900018
:1007c000f0c2b300804f5100080036005e61900017
:1007d00090c3b300804f510004003e005e61900062
:1007e00000cdb30000404100010037000040eb00a5
:1007f00000c07000505f98005e5890000004e00058
:100800004308320000000000101180006100600009
:100810000000e000fcff3200301180000040780052
:100820004067980000000000101180006100600027
:100830000000e000fcff3200301180000040780032
:1008400050679800ce60900000c4b30080cf500085
:100850000a003600ce60900060c4b30080cf500024
:1008600006003e00ce60900090ccb30000c0400077
:100870004400dd008080fb001e003700ce60900049
:1008800000c6b30080cf50000a003600ce60900052
:1008900060c6b30080cf500006003e00ce609000de
:1008a00090cab30000c040004400dd000080fb009f
:1008b0000f003700ce609000f0c2b30080cf500030
:1008c0000a003600ce60900090c3b30080cf500085
:1008d00006003e00ce60900000cdb30000c0400096
:1008e0004400dd000080fb00010037000000eb0049
:1008f000800078005e61900000c4b300804f51001a
:10090000090036005e61900060c4b300804f510062
:1009100005003e005e61900090ccb30000404100b5
:100920000080fb001b0037005e61900000c6b30032
:10093000804f5100090036005e61900060c6b30030
:10094000804f510005003e005e61900090cab300e8
:10095000004041000080fb000e0037005e61900007
:10096000f0c2b300804f5100090036005e61900074
:1009700090c3b300804f510005003e005e619000bf
:1009800000cdb300004041000080fb0001003700b3
:100990000000eb00010070004800dd00700f9800bf
:1009a0000000000010118000610060000000e00005
:1009b000fcff320030118000004078004067980052
:1009c0000000000010118000610060000000e000e5
:1009d000fcff320030118000004078005067980022
:1009e000ce60900000c4b30080cf50000a003600f3
:1009f000ce60900060c4b30080cf500006003e007f
:100a0000ce60900090ccb30000c040004400dd00f8
:100a10008080fb001e003700ce60900000c6b3004f
:100a200080cf50000a003600ce60900060c6b30050
:100a300080cf500006003e00ce60900090cab30008
:100a400000c040004400dd000080fb000f003700c4
:100a5000ce609000f0c2b30080cf50000a00360094
:100a6000ce60900090c3b30080cf500006003e00df
:100a7000ce60900000cdb30000c040004400dd0017
:100a80000080fb00010037000000eb0080007800d0
:100a90005e61900000c4b300804f51000900360031
:100aa0005e61900060c4b300804f510005003e00bd
:100ab0005e61900090ccb300004041000080fb00dc
:100ac0001b0037005e61900000c6b300804f5100ec
:100ad000090036005e61900060c6b300804f51008f
:100ae00005003e005e61900090cab30000404100e6
:100af0000080fb000e0037005e619000f0c2b30082
:100b0000804f5100090036005e61900090c3b30031
:100b1000804f510005003e005e61900000cdb300a3
:100b2000004041000080fb00010037000000eb00a6
:100b300001007000fe08900000804000700f9800d7
:100b40000000000010118000610060000000e00063
:100b5000fcff3200301180000040780040679800b0
:100b60000000000010118000610060000000e00043
:100b7000fcff320030118000004078005067980080
:100b8000ce60900000c4b30080cf50000a00360051
:100b9000ce60900060c4b30080cf500006003e00dd
:100ba000ce60900090ccb30000c040004400dd0057
:100bb000804078001c003700ce60900000c6b30073
:100bc00080cf500009003600ce60900060c6b300b0
:100bd00080cf500005003e00ce60900090cab30068
:100be00000c040004400dd000e003700ce609000e1
:100bf000f0c2b30080cf500009003600ce609000f4
:100c000090c3b30080cf500005003e00ce6090003e
:100c100000cdb30000c040004400dd0001003700fb
:100c20000040eb00804078005e61900000c4b3009b
:100c3000804f5100080036005e61900060c4b30030
:100c4000804f510004003e005e61900090ccb300e4
:100c500000404100190037005e61900000c6b300fb
:100c6000804f5100080036005e61900060c6b300fe
:100c7000804f510004003e005e61900090cab300b6
:100c8000004041000d0037005e619000f0c2b300eb
:100c9000804f5100080036005e61900090c3b300a1
:100ca000804f510004003e005e61900000cdb30013
:100cb00000404100010037000040eb0000c0700020
:100cc000006798000e6090000004e0002b033a00db
:100cd0004e4890000004e00002003a00fe08900038
:100ce000510798000000eb00700798000b033700d5
:100cf0000000000010118000610060000000e000b2
:100d0000fcff32004e4890000080fb003111800053
:100d1000814078006002b000017778004e48900072
:100d20000040e800404f98004e489000ef4f5000c0
:100d3000f70236004e0090000000d1000000e000f5
:100d4000ea0232004e0090000000d100e40f500093
:100d5000e6023e001000240040398800a00f200069
:100d6000a00288005e0090000000d1005039880089
:100d70004e0090000000d100603988008e6890001d
:100d800000c4b30080cf50000a0036008e68900087
:100d900060c4b30080cf500006003e008e68900013
:100da00090ccb30000c040004400dd008080fb0018
:100db0001e0037008e68900000c6b30080cf500040
:100dc0000a0036008e68900060c6b30080cf5000e5
:100dd00006003e008e68900090cab30000c040003c
:100de0004400dd000080fb000f0037008e6890009b
:100df000f0c2b30080cf50000a0036008e68900029
:100e000090c3b30080cf500006003e008e68900073
:100e100000cdb30000c040004400dd000080fb00b6
:100e2000010037000000eb00800078001e69900090
:100e300000c4b300804f5100090036001e699000c5
:100e400060c4b300804f510005003e001e69900051
:100e500090ccb300004041000080fb001b00370035
:100e60001e69900000c6b300804f51000900360093
:100e70001e69900060c6b300804f510005003e001f
:100e80001e69900090cab300004041000080fb0042
:100e90000e0037001e699000f0c2b300804f510071
:100ea000090036001e69900090c3b300804f5100c6
:100eb00005003e001e69900000cdb30000404100d7
:100ec0000080fb00010037000000eb000100700013
:100ed0004800dd0010179800ee60900000c4b300d9
:100ee00080cf50000a003600ee60900060c4b3006e
:100ef00080cf500006003e00ee60900090ccb30022
:100f000000c040004400dd008080fb001e00370070
:100f1000ee60900000c6b30080cf50000a0036009b
:100f2000ee60900060c6b30080cf500006003e0027
:100f3000ee60900090cab30000c040004400dd00a5
:100f40000080fb000f003700ee609000f0c2b3009d
:100f500080cf50000a003600ee60900090c3b300ce
:100f600080cf500006003e00ee60900000cdb30040
:100f700000c040004400dd000080fb00010037009d
:100f80000000eb00800078007e61900000c4b30098
:100f9000804f5100090036007e61900060c4b300ac
:100fa000804f510005003e007e61900090ccb30060
:100fb000004041000080fb001b0037007e61900074
:100fc00000c6b300804f5100090036007e619000da
:100fd00060c6b300804f510005003e007e61900066
:100fe00090cab300004041000080fb000e003700b3
:100ff0007e619000f0c2b300804f510009003600be
:101000007e61900090c3b300804f510005003e0008
:101010007e61900000cdb300004041000080fb00e5
:10102000010037000000eb00010070009e109000ee
:1010300000804000101798000000eb009e10900008
:101040000108bb00ce68900000c4b30080cf500000
:101050000a003600ce68900060c4b30080cf500014
:1010600006003e00ce68900090ccb30000c0400067
:101070004400dd008080fb001e003700ce68900039
:1010800000c6b30080cf50000a003600ce68900042
:1010900060c6b30080cf500006003e00ce689000ce
:1010a00090cab30000c040004400dd000080fb0097
:1010b0000f003700ce689000f0c2b30080cf500020
:1010c0000a003600ce68900090c3b30080cf500075
:1010d00006003e00ce68900000cdb30000c0400086
:1010e0004400dd000080fb00010037000000eb0041
:1010f000800078005e69900000c4b300804f51000a
:10110000090036005e69900060c4b300804f510052
:1011100005003e005e69900090ccb30000404100a5
:101120000080fb001b0037005e69900000c6b30022
:10113000804f5100090036005e69900060c6b30020
:10114000804f510005003e005e69900090cab300d8
:10115000004041000080fb000e0037005e699000f7
:10116000f0c2b300804f5100090036005e69900064
:1011700090c3b300804f510005003e005e699000af
:1011800000cdb300004041000080fb0001003700ab
:101190000000eb00010070004800dd00101798000f
:1011a000ae68900000c4b30080cf50000a00360043
:1011b000ae68900060c4b30080cf500006003e00cf
:1011c000ae68900090ccb30000c040004400dd0049
:1011d0008080fb001e003700ae68900000c6b300a0
:1011e00080cf50000a003600ae68900060c6b300a1
:1011f00080cf500006003e00ae68900090cab30059
:1012000000c040004400dd000080fb000f003700fc
:10121000ae689000f0c2b30080cf50000a003600e4
:10122000ae68900090c3b30080cf500006003e002f
:10123000ae68900000cdb30000c040004400dd0067
:101240000080fb00010037000000eb008000780008
:101250003e69900000c4b300804f51000900360081
:101260003e69900060c4b300804f510005003e000d
:101270003e69900090ccb300004041000080fb002c
:101280001b0037003e69900000c6b300804f51003c
:10129000090036003e69900060c6b300804f5100df
:1012a00005003e003e69900090cab3000040410036
:1012b0000080fb000e0037003e699000f0c2b300d2
:1012c000804f5100090036003e69900090c3b30082
:1012d000804f510005003e003e69900000cdb300f4
:1012e000004041000080fb00010037000000eb00df
:1012f000010070009e1090000080400010179800c0
:101300000000eb009e1090000188bb008e709000e2
:1013100000c4b30080cf50000a0036008e709000e9
:1013200060c4b30080cf500006003e008e70900075
:1013300090ccb30000c040004400dd008080fb0082
:101340001e0037008e70900000c6b30080cf5000a2
:101350000a0036008e70900060c6b30080cf500047
:1013600006003e008e70900090cab30000c040009e
:101370004400dd000080fb000f0037008e709000fd
:10138000f0c2b30080cf50000a0036008e7090008b
:1013900090c3b30080cf500006003e008e709000d6
:1013a00000cdb30000c040004400dd000080fb0021
:1013b000010037000000eb00800078001e719000f3
:1013c00000c4b300804f5100090036001e71900028
:1013d00060c4b300804f510005003e001e719000b4
:1013e00090ccb300004041000080fb001b003700a0
:1013f0001e71900000c6b300804f510009003600f6
:101400001e71900060c6b300804f510005003e0081
:101410001e71900090cab300004041000080fb00a4
:101420000e0037001e719000f0c2b300804f5100d3
:10143000090036001e71900090c3b300804f510028
:1014400005003e001e71900000cdb3000040410039
:101450000080fb00010037000000eb00010070007d
:101460004800dd0010179800ee68900000c4b3003b
:1014700080cf50000a003600ee68900060c4b300d0
:1014800080cf500006003e00ee68900090ccb30084
:1014900000c040004400dd008080fb001e003700db
:1014a000ee68900000c6b30080cf50000a003600fe
:1014b000ee68900060c6b30080cf500006003e008a
:1014c000ee68900090cab30000c040004400dd0008
:1014d0000080fb000f003700ee689000f0c2b30000
:1014e00080cf50000a003600ee68900090c3b30031
:1014f00080cf500006003e00ee68900000cdb300a3
:1015000000c040004400dd000080fb000100370007
:101510000000eb00800078007e69900000c4b300fa
:10152000804f5100090036007e69900060c4b3000e
:10153000804f510005003e007e69900090ccb300c2
:10154000004041000080fb001b0037007e699000d6
:1015500000c6b300804f5100090036007e6990003c
:1015600060c6b300804f510005003e007e699000c8
:1015700090cab300004041000080fb000e0037001d
:101580007e699000f0c2b300804f51000900360020
:101590007e69900090c3b300804f510005003e006b
:1015a0007e69900000cdb300004041000080fb0048
:1015b000010037000000eb00010070009e10900059
:1015c0000080400010179800200020009e1090001e
:1015d0000108bb00ce70900000c4b30080cf500063
:1015e0000a003600ce70900060c4b30080cf500077
:1015f00006003e00ce70900090ccb30000c04000ca
:101600004400dd008080fb001e003700ce7090009b
:1016100000c6b30080cf50000a003600ce709000a4
:1016200060c6b30080cf500006003e00ce70900030
:1016300090cab30000c040004400dd000080fb0001
:101640000f003700ce709000f0c2b30080cf500082
:101650000a003600ce70900090c3b30080cf5000d7
:1016600006003e00ce70900000cdb30000c04000e8
:101670004400dd000080fb00010037000000eb00ab
:10168000800078005e71900000c4b300804f51006c
:10169000090036005e71900060c4b300804f5100b5
:1016a00005003e005e71900090ccb3000040410008
:1016b0000080fb001b0037005e71900000c6b30085
:1016c000804f5100090036005e71900060c6b30083
:1016d000804f510005003e005e71900090cab3003b
:1016e000004041000080fb000e0037005e7190005a
:1016f000f0c2b300804f5100090036005e719000c7
:1017000090c3b300804f510005003e005e71900011
:1017100000cdb300004041000080fb000100370015
:101720000000eb00010070004800dd001017980079
:10173000ae70900000c4b30080cf50000a003600a5
:10174000ae70900060c4b30080cf500006003e0031
:10175000ae70900090ccb30000c040004400dd00ab
:101760008080fb001e003700ae70900000c6b30002
:1017700080cf50000a003600ae70900060c6b30003
:1017800080cf500006003e00ae70900090cab300bb
:1017900000c040004400dd000080fb000f00370067
:1017a000ae709000f0c2b30080cf50000a00360047
:1017b000ae70900090c3b30080cf500006003e0092
:1017c000ae70900000cdb30000c040004400dd00ca
:1017d0000080fb00010037000000eb008000780073
:1017e0003e71900000c4b300804f510009003600e4
:1017f0003e71900060c4b300804f510005003e0070
:101800003e71900090ccb300004041000080fb008e
:101810001b0037003e71900000c6b300804f51009e
:10182000090036003e71900060c6b300804f510041
:1018300005003e003e71900090cab3000040410098
:101840000080fb000e0037003e719000f0c2b30034
:10185000804f5100090036003e71900090c3b300e4
:10186000804f510005003e003e71900000cdb30056
:10187000004041000080fb00010037000000eb0049
:10188000010070009e10900000804000101798002a
:10189000200020009e1090000188bb0011468000af
:1018a000510f9800c3e8a9000000000000000000ec
:1018b0005005200070398800a00a20007039880087
:1018c00029e7a80000000000000000000000000060
:1018d0004139800000002800008060000000e00026
:1018e000fbff3a00de089000114688000040eb0044
:1018f000404f98007e0090000080d100800078006a
:101900007e089000008040000000e800500798002a
:101910007e0090000000e800700798005e5890007c
:101920000080fb0000004000800078007e009000f6
:10193000808f5000eefc3c00000000001011800081
:10194000610060000000e000fcff32003011800008
:1019500000407800406798000000000010118000ef
:10196000610060000000e000fcff320030118000e8
:101970000040780050679800e80637000e6090003d
:10198000e44f5000e5063a004e4890000004e000a5
:10199000ff0232004e4890000080fb00000f9800cc
:1019a000070037000e0890006002b00061c4b30069
:1019b000017778000e0890000000e800000f980002
:1019c0000e089000ef0f5000f6ff34004e0090001c
:1019d0000000d1000000e000ea0232004e0090005a
:1019e0000000d100e40f5000e6023e001000240089
:1019f00040398800a00f2000a00288005e009000ff
:101a00000000d100503988004e0090000000d10045
:101a1000603988008e68900000c4b30080cf500009
:101a20000a0036008e68900060c4b30080cf50007a
:101a300006003e008e68900090ccb30000c04000cd
:101a40004400dd008080fb001e0037008e6890009f
:101a500000c6b30080cf50000a0036008e689000a8
:101a600060c6b30080cf500006003e008e68900034
:101a700090cab30000c040004400dd000080fb00bd
:101a80000f0037008e689000f0c2b30080cf500086
:101a90000a0036008e68900090c3b30080cf5000db
:101aa00006003e008e68900000cdb30000c04000ec
:101ab0004400dd000080fb00010037000000eb0067
:101ac000800078001e69900000c4b300804f510070
:101ad000090036001e69900060c4b300804f5100b9
:101ae00005003e001e69900090ccb300004041000c
:101af0000080fb001b0037001e69900000c6b30089
:101b0000804f5100090036001e69900060c6b30086
:101b1000804f510005003e001e69900090cab3003e
:101b2000004041000080fb000e0037001e6990005d
:101b3000f0c2b300804f5100090036001e699000ca
:101b400090c3b300804f510005003e001e69900015
:101b500000cdb300004041000080fb0001003700d1
:101b60000000eb00010070004800dd001017980035
:101b7000ee60900000c4b30080cf50000a00360031
:101b8000ee60900060c4b30080cf500006003e00bd
:101b9000ee60900090ccb30000c040004400dd0037
:101ba0008080fb001e003700ee60900000c6b3008e
:101bb00080cf50000a003600ee60900060c6b3008f
:101bc00080cf500006003e00ee60900090cab30047
:101bd00000c040004400dd000080fb000f00370023
:101be000ee609000f0c2b30080cf50000a003600d3
:101bf000ee60900090c3b30080cf500006003e001e
:101c0000ee60900000cdb30000c040004400dd0055
:101c10000080fb00010037000000eb00800078002e
:101c20007e61900000c4b300804f5100090036006f
:101c30007e61900060c4b300804f510005003e00fb
:101c40007e61900090ccb300004041000080fb001a
:101c50001b0037007e61900000c6b300804f51002a
:101c6000090036007e61900060c6b300804f5100cd
:101c700005003e007e61900090cab3000040410024
:101c80000080fb000e0037007e619000f0c2b300c0
:101c9000804f5100090036007e61900090c3b30070
:101ca000804f510005003e007e61900000cdb300e2
:101cb000004041000080fb00010037000000eb0005
:101cc000010070009e1090000080400010179800e6
:101cd0000000eb009e1090000108bb00ce68900051
:101ce00000c4b30080cf50000a003600ce689000d8
:101cf00060c4b30080cf500006003e00ce68900064
:101d000090ccb30000c040004400dd008080fb00a8
:101d10001e003700ce68900000c6b30080cf500090
:101d20000a003600ce68900060c6b30080cf500035
:101d300006003e00ce68900090cab30000c040008c
:101d40004400dd000080fb000f003700ce689000eb
:101d5000f0c2b30080cf50000a003600ce68900079
:101d600090c3b30080cf500006003e00ce689000c4
:101d700000cdb30000c040004400dd000080fb0047
:101d8000010037000000eb00800078005e699000e1
:101d900000c4b300804f5100090036005e69900016
:101da00060c4b300804f510005003e005e699000a2
:101db00090ccb300004041000080fb001b003700c6
:101dc0005e69900000c6b300804f510009003600e4
:101dd0005e69900060c6b300804f510005003e0070
:101de0005e69900090cab300004041000080fb0093
:101df0000e0037005e699000f0c2b300804f5100c2
:101e0000090036005e69900090c3b300804f510016
:101e100005003e005e69900000cdb3000040410027
:101e20000080fb00010037000000eb0001007000a3
:101e30004800dd0010179800ae68900000c4b300a1
:101e400080cf50000a003600ae68900060c4b30036
:101e500080cf500006003e00ae68900090ccb300ea
:101e600000c040004400dd008080fb001e00370001
:101e7000ae68900000c6b30080cf50000a00360064
:101e8000ae68900060c6b30080cf500006003e00f0
:101e9000ae68900090cab30000c040004400dd006e
:101ea0000080fb000f003700ae689000f0c2b30066
:101eb00080cf50000a003600ae68900090c3b30097
:101ec00080cf500006003e00ae68900000cdb30009
:101ed00000c040004400dd000080fb00010037002e
:101ee0000000eb00800078003e69900000c4b30061
:101ef000804f5100090036003e69900060c4b30075
:101f0000804f510005003e003e69900090ccb30028
:101f1000004041000080fb001b0037003e6990003c
:101f200000c6b300804f5100090036003e699000a2
:101f300060c6b300804f510005003e003e6990002e
:101f400090cab300004041000080fb000e00370043
:101f50003e699000f0c2b300804f51000900360086
:101f60003e69900090c3b300804f510005003e00d1
:101f70003e69900000cdb300004041000080fb00ae
:101f8000010037000000eb00010070009e1090007f
:101f900000804000101798000000eb009e10900099
:101fa0000188bb008e70900000c4b30080cf500049
:101fb0000a0036008e70900060c4b30080cf5000dd
:101fc00006003e008e70900090ccb30000c0400030
:101fd0004400dd008080fb001e0037008e70900002
:101fe00000c6b30080cf50000a0036008e7090000b
:101ff00060c6b30080cf500006003e008e70900097
:1020000090cab30000c040004400dd000080fb0027
:102010000f0037008e709000f0c2b30080cf5000e8
:102020000a0036008e70900090c3b30080cf50003d
:1020300006003e008e70900000cdb30000c040004e
:102040004400dd000080fb00010037000000eb00d1
:10205000800078001e71900000c4b300804f5100d2
:10206000090036001e71900060c4b300804f51001b
:1020700005003e001e71900090ccb300004041006e
:102080000080fb001b0037001e71900000c6b300eb
:10209000804f5100090036001e71900060c6b300e9
:1020a000804f510005003e001e71900090cab300a1
:1020b000004041000080fb000e0037001e719000c0
:1020c000f0c2b300804f5100090036001e7190002d
:1020d00090c3b300804f510005003e001e71900078
:1020e00000cdb300004041000080fb00010037003c
:1020f0000000eb00010070004800dd0010179800a0
:10210000ee68900000c4b30080cf50000a00360093
:10211000ee68900060c4b30080cf500006003e001f
:10212000ee68900090ccb30000c040004400dd0099
:102130008080fb001e003700ee68900000c6b300f0
:1021400080cf50000a003600ee68900060c6b300f1
:1021500080cf500006003e00ee68900090cab300a9
:1021600000c040004400dd000080fb000f0037008d
:10217000ee689000f0c2b30080cf50000a00360035
:10218000ee68900090c3b30080cf500006003e0080
:10219000ee68900000cdb30000c040004400dd00b8
:1021a0000080fb00010037000000eb008000780099
:1021b0007e69900000c4b300804f510009003600d2
:1021c0007e69900060c4b300804f510005003e005e
:1021d0007e69900090ccb300004041000080fb007d
:1021e0001b0037007e69900000c6b300804f51008d
:1021f000090036007e69900060c6b300804f510030
:1022000005003e007e69900090cab3000040410086
:102210000080fb000e0037007e699000f0c2b30022
:10222000804f5100090036007e69900090c3b300d2
:10223000804f510005003e007e69900000cdb30044
:10224000004041000080fb00010037000000eb006f
:10225000010070009e109000008040001017980050
:10226000200020009e1090000108bb00ce7090005e
:1022700000c4b30080cf50000a003600ce7090003a
:1022800060c4b30080cf500006003e00ce709000c6
:1022900090ccb30000c040004400dd008080fb0013
:1022a0001e003700ce70900000c6b30080cf5000f3
:1022b0000a003600ce70900060c6b30080cf500098
:1022c00006003e00ce70900090cab30000c04000ef
:1022d0004400dd000080fb000f003700ce7090004e
:1022e000f0c2b30080cf50000a003600ce709000dc
:1022f00090c3b30080cf500006003e00ce70900027
:1023000000cdb30000c040004400dd000080fb00b1
:10231000010037000000eb00800078005e71900043
:1023200000c4b300804f5100090036005e71900078
:1023300060c4b300804f510005003e005e71900004
:1023400090ccb300004041000080fb001b00370030
:102350005e71900000c6b300804f51000900360046
:102360005e71900060c6b300804f510005003e00d2
:102370005e71900090cab300004041000080fb00f5
:102380000e0037005e719000f0c2b300804f510024
:10239000090036005e71900090c3b300804f510079
:1023a00005003e005e71900000cdb300004041008a
:1023b0000080fb00010037000000eb00010070000e
:1023c0004800dd0010179800ae70900000c4b30004
:1023d00080cf50000a003600ae70900060c4b30099
:1023e00080cf500006003e00ae70900090ccb3004d
:1023f00000c040004400dd008080fb001e0037006c
:10240000ae70900000c6b30080cf50000a003600c6
:10241000ae70900060c6b30080cf500006003e0052
:10242000ae70900090cab30000c040004400dd00d0
:102430000080fb000f003700ae709000f0c2b300c8
:1024400080cf50000a003600ae70900090c3b300f9
:1024500080cf500006003e00ae70900000cdb3006b
:1024600000c040004400dd000080fb000100370098
:102470000000eb00800078003e71900000c4b300c3
:10248000804f5100090036003e71900060c4b300d7
:10249000804f510005003e003e71900090ccb3008b
:1024a000004041000080fb001b0037003e7190009f
:1024b00000c6b300804f5100090036003e71900005
:1024c00060c6b300804f510005003e003e71900091
:1024d00090cab300004041000080fb000e003700ae
:1024e0003e719000f0c2b300804f510009003600e9
:1024f0003e71900090c3b300804f510005003e0034
:102500003e71900000cdb300004041000080fb0010
:10251000010037000000eb00010070009e109000e9
:102520000080400010179800200020009e109000ae
:102530000188bb0011468000510f9800c3e8a90034
:1025400000000000000000005005200070398800e5
:10255000a00a20007039880029e7a80000000000c8
:102560000000000000000000413980000000280049
:10257000008060000000e000fbff3a00de089000f1
:10258000114688000040eb00404f980001003700e2
:102590000000000010118000610060000000e000f9
:1025a000fcff320030118000004078004067980046
:1025b0000000000010118000610060000000e000d9
:1025c000fcff320030118000004078005067980016
:1025d000ce60900000c4b30080cf50000a003600e7
:1025e000ce60900060c4b30080cf500006003e0073
:1025f000ce60900090ccb30000c040004400dd00ed
:102600008080fb001e003700ce60900000c6b30043
:1026100080cf50000a003600ce60900060c6b30044
:1026200080cf500006003e00ce60900090cab300fc
:1026300000c040004400dd000080fb000f003700b8
:10264000ce609000f0c2b30080cf50000a00360088
:10265000ce60900090c3b30080cf500006003e00d3
:10266000ce60900000cdb30000c040004400dd000b
:102670000080fb00010037000000eb0080007800c4
:102680005e61900000c4b300804f51000900360025
:102690005e61900060c4b300804f510005003e00b1
:1026a0005e61900090ccb300004041000080fb00d0
:1026b0001b0037005e61900000c6b300804f5100e0
:1026c000090036005e61900060c6b300804f510083
:1026d00005003e005e61900090cab30000404100da
:1026e0000080fb000e0037005e619000f0c2b30076
:1026f000804f5100090036005e61900090c3b30026
:10270000804f510005003e005e61900000cdb30097
:10271000004041000080fb00010037000000eb009a
:10272000010070004800dd00400798000000000034
:1027300010118000610060000000e000fcff32002a
:1027400030118000004078004067980000000000d1
:1027500010118000610060000000e000fcff32000a
:10276000301180000040780050679800ce609000e3
:1027700000c4b30080cf50000a003600ce60900045
:1027800060c4b30080cf500006003e00ce609000d1
:1027900090ccb30000c040004400dd008080fb000e
:1027a0001e003700ce60900000c6b30080cf5000fe
:1027b0000a003600ce60900060c6b30080cf5000a3
:1027c00006003e00ce60900090cab30000c04000fa
:1027d0004400dd000080fb000f003700ce60900059
:1027e000f0c2b30080cf50000a003600ce609000e7
:1027f00090c3b30080cf500006003e00ce60900032
:1028000000cdb30000c040004400dd000080fb00ac
:10281000010037000000eb00800078005e6190004e
:1028200000c4b300804f5100090036005e61900083
:1028300060c4b300804f510005003e005e6190000f
:1028400090ccb300004041000080fb001b0037002b
:102850005e61900000c6b300804f51000900360051
:102860005e61900060c6b300804f510005003e00dd
:102870005e61900090cab300004041000080fb0000
:102880000e0037005e619000f0c2b300804f51002f
:10289000090036005e61900090c3b300804f510084
:1028a00005003e005e61900000cdb3000040410095
:1028b0000080fb00010037000000eb000100700009
:1028c000ce0090000080400040079800000000000b
:1028d00010118000610060000000e000fcff320089
:1028e0003011800000407800406798000000000030
:1028f00010118000610060000000e000fcff320069
:1029000030118000004078005067980003033700c2
:102910000040eb00504f98004e4890000004e0004b
:10292000fe0232004e4890000080fb00100f98001d
:10293000070037001e0890006002b00061c4b300b9
:10294000017778001e0890000000e800100f980042
:102950001e089000ef0f5000f6ff34004e0090006c
:102960000000d1000000e000ea0232004e009000ba
:102970000000d100e40f5000e6023e0010002400e9
:1029800040398800a00f2000a00288005e0090005f
:102990000000d100503988004e0090000000d100a6
:1029a000603988008e68900000c4b30080cf50006a
:1029b0000a0036008e68900060c4b30080cf5000db
:1029c00006003e008e68900090ccb30000c040002e
:1029d0004400dd008080fb001e0037008e68900000
:1029e00000c6b30080cf50000a0036008e68900009
:1029f00060c6b30080cf500006003e008e68900095
:102a000090cab30000c040004400dd000080fb001d
:102a10000f0037008e689000f0c2b30080cf5000e6
:102a20000a0036008e68900090c3b30080cf50003b
:102a300006003e008e68900000cdb30000c040004c
:102a40004400dd000080fb00010037000000eb00c7
:102a5000800078001e69900000c4b300804f5100d0
:102a6000090036001e69900060c4b300804f510019
:102a700005003e001e69900090ccb300004041006c
:102a80000080fb001b0037001e69900000c6b300e9
:102a9000804f5100090036001e69900060c6b300e7
:102aa000804f510005003e001e69900090cab3009f
:102ab000004041000080fb000e0037001e699000be
:102ac000f0c2b300804f5100090036001e6990002b
:102ad00090c3b300804f510005003e001e69900076
:102ae00000cdb300004041000080fb000100370032
:102af0000000eb00010070004800dd001017980096
:102b0000ee60900000c4b30080cf50000a00360091
:102b1000ee60900060c4b30080cf500006003e001d
:102b2000ee60900090ccb30000c040004400dd0097
:102b30008080fb001e003700ee60900000c6b300ee
:102b400080cf50000a003600ee60900060c6b300ef
:102b500080cf500006003e00ee60900090cab300a7
:102b600000c040004400dd000080fb000f00370083
:102b7000ee609000f0c2b30080cf50000a00360033
:102b8000ee60900090c3b30080cf500006003e007e
:102b9000ee60900000cdb30000c040004400dd00b6
:102ba0000080fb00010037000000eb00800078008f
:102bb0007e61900000c4b300804f510009003600d0
:102bc0007e61900060c4b300804f510005003e005c
:102bd0007e61900090ccb300004041000080fb007b
:102be0001b0037007e61900000c6b300804f51008b
:102bf000090036007e61900060c6b300804f51002e
:102c000005003e007e61900090cab3000040410084
:102c10000080fb000e0037007e619000f0c2b30020
:102c2000804f5100090036007e61900090c3b300d0
:102c3000804f510005003e007e61900000cdb30042
:102c4000004041000080fb00010037000000eb0065
:102c5000010070009e109000008040001017980046
:102c60000000eb009e1090000108bb00ce689000b1
:102c700000c4b30080cf50000a003600ce68900038
:102c800060c4b30080cf500006003e00ce689000c4
:102c900090ccb30000c040004400dd008080fb0009
:102ca0001e003700ce68900000c6b30080cf5000f1
:102cb0000a003600ce68900060c6b30080cf500096
:102cc00006003e00ce68900090cab30000c04000ed
:102cd0004400dd000080fb000f003700ce6890004c
:102ce000f0c2b30080cf50000a003600ce689000da
:102cf00090c3b30080cf500006003e00ce68900025
:102d000000cdb30000c040004400dd000080fb00a7
:102d1000010037000000eb00800078005e69900041
:102d200000c4b300804f5100090036005e69900076
:102d300060c4b300804f510005003e005e69900002
:102d400090ccb300004041000080fb001b00370026
:102d50005e69900000c6b300804f51000900360044
:102d60005e69900060c6b300804f510005003e00d0
:102d70005e69900090cab300004041000080fb00f3
:102d80000e0037005e699000f0c2b300804f510022
:102d9000090036005e69900090c3b300804f510077
:102da00005003e005e69900000cdb3000040410088
:102db0000080fb00010037000000eb000100700004
:102dc0004800dd0010179800ae68900000c4b30002
:102dd00080cf50000a003600ae68900060c4b30097
:102de00080cf500006003e00ae68900090ccb3004b
:102df00000c040004400dd008080fb001e00370062
:102e0000ae68900000c6b30080cf50000a003600c4
:102e1000ae68900060c6b30080cf500006003e0050
:102e2000ae68900090cab30000c040004400dd00ce
:102e30000080fb000f003700ae689000f0c2b300c6
:102e400080cf50000a003600ae68900090c3b300f7
:102e500080cf500006003e00ae68900000cdb30069
:102e600000c040004400dd000080fb00010037008e
:102e70000000eb00800078003e69900000c4b300c1
:102e8000804f5100090036003e69900060c4b300d5
:102e9000804f510005003e003e69900090ccb30089
:102ea000004041000080fb001b0037003e6990009d
:102eb00000c6b300804f5100090036003e69900003
:102ec00060c6b300804f510005003e003e6990008f
:102ed00090cab300004041000080fb000e003700a4
:102ee0003e699000f0c2b300804f510009003600e7
:102ef0003e69900090c3b300804f510005003e0032
:102f00003e69900000cdb300004041000080fb000e
:102f1000010037000000eb00010070009e109000df
:102f200000804000101798000000eb009e109000f9
:102f30000188bb008e70900000c4b30080cf5000a9
:102f40000a0036008e70900060c4b30080cf50003d
:102f500006003e008e70900090ccb30000c0400090
:102f60004400dd008080fb001e0037008e70900062
:102f700000c6b30080cf50000a0036008e7090006b
:102f800060c6b30080cf500006003e008e709000f7
:102f900090cab30000c040004400dd000080fb0088
:102fa0000f0037008e709000f0c2b30080cf500049
:102fb0000a0036008e70900090c3b30080cf50009e
:102fc00006003e008e70900000cdb30000c04000af
:102fd0004400dd000080fb00010037000000eb0032
:102fe000800078001e71900000c4b300804f510033
:102ff000090036001e71900060c4b300804f51007c
:1030000005003e001e71900090ccb30000404100ce
:103010000080fb001b0037001e71900000c6b3004b
:10302000804f5100090036001e71900060c6b30049
:10303000804f510005003e001e71900090cab30001
:10304000004041000080fb000e0037001e71900020
:10305000f0c2b300804f5100090036001e7190008d
:1030600090c3b300804f510005003e001e719000d8
:1030700000cdb300004041000080fb00010037009c
:103080000000eb00010070004800dd001017980000
:10309000ee68900000c4b30080cf50000a003600f4
:1030a000ee68900060c4b30080cf500006003e0080
:1030b000ee68900090ccb30000c040004400dd00fa
:1030c0008080fb001e003700ee68900000c6b30051
:1030d00080cf50000a003600ee68900060c6b30052
:1030e00080cf500006003e00ee68900090cab3000a
:1030f00000c040004400dd000080fb000f003700ee
:10310000ee689000f0c2b30080cf50000a00360095
:10311000ee68900090c3b30080cf500006003e00e0
:10312000ee68900000cdb30000c040004400dd0018
:103130000080fb00010037000000eb0080007800f9
:103140007e69900000c4b300804f51000900360032
:103150007e69900060c4b300804f510005003e00be
:103160007e69900090ccb300004041000080fb00dd
:103170001b0037007e69900000c6b300804f5100ed
:10318000090036007e69900060c6b300804f510090
:1031900005003e007e69900090cab30000404100e7
:1031a0000080fb000e0037007e699000f0c2b30083
:1031b000804f5100090036007e69900090c3b30033
:1031c000804f510005003e007e69900000cdb300a5
:1031d000004041000080fb00010037000000eb00d0
:1031e000010070009e1090000080400010179800b1
:1031f000200020009e1090000108bb00ce709000bf
:1032000000c4b30080cf50000a003600ce7090009a
:1032100060c4b30080cf500006003e00ce70900026
:1032200090ccb30000c040004400dd008080fb0073
:103230001e003700ce70900000c6b30080cf500053
:103240000a003600ce70900060c6b30080cf5000f8
:1032500006003e00ce70900090cab30000c040004f
:103260004400dd000080fb000f003700ce709000ae
:10327000f0c2b30080cf50000a003600ce7090003c
:1032800090c3b30080cf500006003e00ce70900087
:1032900000cdb30000c040004400dd000080fb0012
:1032a000010037000000eb00800078005e719000a4
:1032b00000c4b300804f5100090036005e719000d9
:1032c00060c4b300804f510005003e005e71900065
:1032d00090ccb300004041000080fb001b00370091
:1032e0005e71900000c6b300804f510009003600a7
:1032f0005e71900060c6b300804f510005003e0033
:103300005e71900090cab300004041000080fb0055
:103310000e0037005e719000f0c2b300804f510084
:10332000090036005e71900090c3b300804f5100d9
:1033300005003e005e71900000cdb30000404100ea
:103340000080fb00010037000000eb00010070006e
:103350004800dd0010179800ae70900000c4b30064
:1033600080cf50000a003600ae70900060c4b300f9
:1033700080cf500006003e00ae70900090ccb300ad
:1033800000c040004400dd008080fb001e003700cc
:10339000ae70900000c6b30080cf50000a00360027
:1033a000ae70900060c6b30080cf500006003e00b3
:1033b000ae70900090cab30000c040004400dd0031
:1033c0000080fb000f003700ae709000f0c2b30029
:1033d00080cf50000a003600ae70900090c3b3005a
:1033e00080cf500006003e00ae70900000cdb300cc
:1033f00000c040004400dd000080fb0001003700f9
:103400000000eb00800078003e71900000c4b30023
:10341000804f5100090036003e71900060c4b30037
:10342000804f510005003e003e71900090ccb300eb
:10343000004041000080fb001b0037003e719000ff
:1034400000c6b300804f5100090036003e71900065
:1034500060c6b300804f510005003e003e719000f1
:1034600090cab300004041000080fb000e0037000e
:103470003e719000f0c2b300804f51000900360049
:103480003e71900090c3b300804f510005003e0094
:103490003e71900000cdb300004041000080fb0071
:1034a000010037000000eb00010070009e1090004a
:1034b0000080400010179800200020009e1090000f
:1034c0000188bb0011468000510f9800c3e8a90095
:1034d0000000000000000000500520007039880046
:1034e000a00a20007039880029e7a8000000000029
:1034f00000000000000000004139800000002800aa
:10350000008060000000e000fbff3a00de08900051
:10351000114688000040eb00404f98005e48900044
:103520000004e00048f43a008005200020118800e3
:103530000000eb00200f98000d0037000000eb00aa
:10354000300f9800030037003e0890000000e800ac
:10355000300f9800be089000f0032000808f5000cc
:10356000f9ff36002e0890000000e800200f9800b8
:103570002e0890000000e000f0ff3d000000fe007b
:103580000000020001000000100020000080fa008e
:043590000000060031
:020000040000fa
:020000040002f8
:100000000000fa000a27020001000000f82902009f
:0c001000010000000080fa000000060063
:020000040000fa
:020000040002f8
:100200003200f8003400f800881f78001800200041
:10021000a80188001800200008d0fe004f047800d4
:100220000000fa000168a9000080fa003400f9001b
:080230003200f9000040060055
:020000040000fa
:020000040002f8
:100400003200f8003400f800881f7800180020003f
:10041000a80188001800200008d0fe004f047800d2
:100420000000fa000188a9000080fa003400f900f9
:080430003200f9000040060053
:020000040000fa
:020000040002f8
:100600003200f8003400f800881f7800180020003d
:10061000a80188001800200008d0fe004f047800d0
:100620000000fa000428a9000080fa003400f90054
:080630003200f9000040060051
:020000040000fa
:020000040002f8
:10080000809fbe00821f78003200f8003400f8009c
:1008100010002000a00188001000200000d0fe0081
:100820000400fa000288a900107080006f0f6000b9
:1008300091708000c0032000008060004200dd0055
:10084000100798000000eb00b0558900c0558100ea
:100850000080e800c0558900c05581009e009000ce
:100860009e8070000001400000c022000000410096
:10087000010878000080fa003400f9003200f90025
:0c0880004f0178004f00be000040060051
:020000040000fa
:020000040002f8
:100a00003200f8003400f800881f78001800200039
:100a1000a80188001800200008d0fe004f047800cc
:100a20000000fa000088a9000080fa003400f900f4
:080a30003200f900004006004d
:020000040000fa
:020000040002f8
:100c00003600f800809fbe00829fbe00849fbe0019
:100c1000869fbe003200f8003400f800100020006b
:100c2000a00188001000200000d0fe000000fa00a3
:100c30003a500200010000000080fa003400f90080
:100c40003200f9004f03be004f02be004f01be004c
:0c0c50004f00be003600f9000040060016
:020000040000fa
:020000040002f8
:101000000f0021000e7f22000e0188002100200029
:101010000100e00002003200110020009101880070
:10102000000020000000e00002003200000002008a
:101030000000000000020200000000000040da0092
:081040000000fe0000000500a5
:020000040000fa
:020000040002f8
:101048000200fa00000f7800f0ff22009e007800ee
:10105800808f50000a003600f07f23009e00780041
:10106800808f500006003e0000002d009e004000ca
:101078000000230000804000104078002c0037005a
:10108800f07f23009e007800808f50000900360012
:101098001e0078000000e0000600350000802c00eb
:1010a8009e0040000080230000804000104078002f
:1010b8001f0037001e0078000000e0001b003d0004
:1010c800f0ff2c009e007800808f500017003e0033
:1010d800000028001e0040006100b80000f0a700d2
:1010e8001100200002002800130020000002d00098
:1010f8008202d000050042004220a80083804800f8
:101108004200a9004220ae004200a8000080d3009f
:10111800920180008101780003d0fe000000780071
:101128001040780002d0fe00010037000040eb00bc
:101138000080fa00000006000400fa00000f7800a2
:1011480021479800f0ff22009e007800808f500011
:101158000b003600f07f23009e007800808f50003f
:1011680007003e0000002d009e0040000000230004
:1011780000804000ae409000014878002c00370005
:10118800f07f23009e007800808f50000a00360010
:101198001e0078000000e0000700350000802c00e9
:1011a8009e00400000802300008040002e429000f6
:1011b800044878001e0037001e0078000000e00098
:1011c8001b003d00f0ff2c009e007800808f50002f
:1011d80017003e00000028001e0040006100b80013
:1011e80000f0a700110020000200280013002000d2
:1011f8008002d0000202d000048042004220a800f1
:10120800838048004200a9004220ae004200a800a6
:101218000080d300ae419000a20180000102780056
:1012280000007800a401880003487800a201880023
:101238000080fa0000000600000000000000000026
:101248000000000000000000202000002020000016
:1012580020000000200000005050000000000000a6
:10126800000000000000000050500000f85000008e
:10127800f85000005000000070a80000a0700000a6
:1012880028a8000070000000880800001020000056
:10129800408000008800000060900000906000001e
:1012a800a890000068000000202000000000000056
:1012b80000000000000000001020000020200000b6
:1012c8002020000010000000402000002020000026
:1012d80020200000400000008850000020f8000096
:1012e800205000008800000000000000207000006e
:1012f80020000000000000000000000000000000c6
:101308000020000040000000000000000070000005
:1013180000000000000000000000000000000000c5
:101328000000000020000000080800001020000055
:1013380040800000800000007088000098a800002d
:10134800c88800007000000020600000a020000095
:1013580020200000f80000007088000008700000dd
:1013680080800000f800000070880000087000000d
:101378000888000070000000182800004888000055
:10138800f808000008000000f880000080f0000065
:1013980008880000700000007088000080f00000dd
:1013a8008888000070000000f80800001020000085
:1013b80020200000200000007088000088700000d5
:1013c800888800007000000070880000887800009d
:1013d80008880000700000000000000020000000e5
:1013e80000000000200000000000000020000000b5
:1013f8000020000040000000000000002040000025
:101408002000000000000000000000007000000044
:101418007000000000000000000000002010000024
:101428002000000000000000708800000810000084
:10143800200000002000000070880000a8a800001c
:10144800b8800000f80000002050000088f8000074
:101458008888000088000000f088000088f00000fc
:1014680088880000f000000070880000808000007c
:101478008088000070000000f08800008888000064
:1014880088880000f0000000f880000080f000006c
:1014980080800000f8000000f880000080f0000064
:1014a80080800000800000007088000080b8000084
:1014b80088880000780000008888000088f800000c
:1014c8008888000088000000f82000002020000024
:1014d80020200000f8000000381000001010000064
:1014e800109000006000000088900000a0c000007c
:1014f800a09000008800000080800000808000002c
:1015080080800000f800000088d80000a88800004b
:10151800888800008800000088880000c8a80000ab
:101528009888000088000000708800008888000003
:101538008888000070000000f088000088f0000033
:10154800808000008000000070880000888800000b
:10155800a890000068000000f088000088f00000f3
:1015680088880000880000007088000080700000f3
:101578000888000070000000f8200000202000000b
:1015880020200000200000008888000088880000d3
:1015980088880000700000008888000088880000a3
:1015a800885000002000000088880000888800001b
:1015b800a8d800008800000088880000502000009b
:1015c80050880000880000008888000088500000cb
:1015d8002020000020000000f80800001020000073
:1015e80040800000f80000003020000020200000ab
:1015f8002020000030000000808000004020000013
:1016080010080000080000006020000020200000f2
:1016180020200000600000002050000000000000b2
:1016280000000000000000000000000000000000b2
:1016380000000000f800000040200000000000004a
:10164800000000000000000000000000700800001a
:10165800788800007800000080800000f088000092
:1016680088880000f000000000000000708800007a
:1016780080880000700000000808000078880000da
:1016880088880000780000000000000070880000d2
:10169800f88000007800000018200000f820000002
:1016a80020200000200000000000000078880000d2
:1016b800780800007000000080800000f0880000ba
:1016c800888800008800000020000000e02000005a
:1016d80020200000f8000000080000003808000082
:1016e80008880000700000008080000088900000da
:1016f800e090000088000000e020000020200000aa
:1017080020200000f800000000000000d0a8000021
:10171800a8a80000a800000000000000f088000051
:101728008888000088000000000000007088000021
:10173800888800007000000000000000f0880000a9
:10174800f0800000800000000000000078880000a1
:10175800780800000800000000000000b0c8000081
:1017680080800000800000000000000078800000f9
:1017780070080000f000000040400000f040000049
:101788004048000030000000000000008888000089
:1017980088880000700000000000000088880000b1
:1017a800885000002000000000000000a8a80000e9
:1017b800a8a80000500000000000000088500000a9
:1017c8002050000088000000000000008888000009
:1017d800780800007000000000000000f810000009
:1017e80020400000f80000001020000020600000e9
:1017f8002020000010000000202000002020000011
:1018080020200000200000004020000020300000c0
:1018180020200000400000000000000000680000d8
:101828009000000000000000f8f80000f8f8000040
:10183800f8f80000f80000000000000000000000b8
:101848000000000000000000000000000000000090
:101858000009000060000000000000000000000017
:101868000071000031000000000000007a730000e1
:101878006177000032000000006300007864000017
:101888006534000033000000002000007666000088
:101898007472000035000000006e000062680000ed
:1018a8006779000036000000000000006d6a000043
:1018b8007537000038000000002c00006b6900003c
:1018c8006f30000039000000002e00002f6c00006f
:1018d8003b7000002d000000000000002700000001
:1018e8005b3d000000000000000000000d5d0000ee
:1018f800005c000000000000000000000000000084
:10190800000000007f0000000031000000340000eb
:101918003700000000000000302e000032350000c3
:10192800363800001b000000002b0000332d00009b
:101938002a3900000000000000000000000000003c
:10194800000000000000000000000000000000008f
:10195800000900007e0000000000000000000000f8
:101968000051000021000000000000005a53000050
:1019780041570000400000000043000058440000a8
:101988004524000023000000000000005646000027
:101998005452000025000000004e0000424800009c
:1019a800472b00005e000000000000004d4a0000c8
:1019b800552600002a000000003c00004b490000aa
:1019c8004f29000028000000003e00003f4c0000a6
:1019d8003a5000005f0000000000000022000000f4
:1019e8007b2b000000000000000000000d7d0000bf
:1019f800007c000000000000000000000000000063
:101a0800000000007f000000001700000014000024
:101a18001900000000000000000000001200000093
:101a2800131100001b00000000000000000000006f
:101a3800000000000000000054650000726d000006
:101a48003234000020200000202000004553000010
:101a5800433b000048200000666f00007220000031
:101a6800486500006c700000202000002020000065
:101a7800202000005c000000554100005254000086
:101a88002039000036300000302d0000382d0000cd
:101a98004e2d0000312000002020000020200000f2
:101aa800202000002020000020200000202000002e
:101ab800202000002020000020200000202000001e
:101ac800202000002020000020200000202000000e
:101ad80020200000205c0000505300002f3200003e
:101ae800205000007265000073730000203d000064
:101af800206f000072200000736500006e64000013
:101b08002024000035350000207400006f200000fc
:101b1800737900006e630000203f00003f3f000023
:101b28003f2d0000382d00004f2d0000312000000f
:101b3800205c000000000000535000004920000015
:101b4800283300002d5700004952000045290000a5
:101b580020530000656e0000642000003220000061
:101b6800627900007465000073200000746800004a
:101b7800656e00002070000061750000736500004c
:101b8800207400006f200000737900006e6300006d
:101b980020200000205c000050410000524100005d
:101ba8004c4c0000454c0000202000002020000084
:101bb800202000002020000020200000202000001d
:101bc800202000002020000020200000202000000d
:101bd80020200000202000002020000020200000fd
:101be80020200000202000002020000020200000ed
:101bf80020200000205c0000436f00006d6d000095
:101c0800616e0000647300003a200000202000008c
:101c180020200000202000002020000020200000bc
:101c280020200000202000002020000020200000ac
:101c38002020000020200000204500005343000021
:101c48003b780000542000002020000020200000e5
:101c58003d2000005465000078740000204d00000d
:101c68006f64000065200000202000002020000094
:101c7800202000002020000020200000202000005c
:101c8800202000002020000020200000202000004c
:101c980020200000202000002045000053430000c1
:101ca8005b78000041200000202000003d2000005b
:101cb80043750000727300006f7200002055000029
:101cc80070200000202000002020000020200000bc
:101cd8002020000020200000204500005343000081
:101ce8003b78000043200000202000002020000056
:101cf8003d200000436f00006c6f00007220000060
:101d08004d6f0000646500002020000020200000c6
:101d180020200000202000002020000020200000bb
:101d280020200000202000002020000020200000ab
:101d38002020000020200000204500005343000020
:101d48005b78000042200000202000003d200000b9
:101d580043750000727300006f7200002044000099
:101d68006f7700006e200000202000002020000077
:101d780020200000202000002045000053430000e0
:101d88003b7800004c2000002020000020200000ac
:101d98003d2000004c650000676100006379000089
:101da800204f00006e2f00004f66000066200000e4
:101db800202000002020000020200000202000001b
:101dc800202000002020000020200000202000000b
:101dd8002020000020200000204500005343000080
:101de8005b78000043200000202000003d20000018
:101df80043750000727300006f72000020460000f7
:101e08006f720000776100007264000020200000fb
:101e1800202000002020000020450000534300003f
:101e28003b78000045200000202000002020000012
:101e38003d20000045630000686f0000204f00004f
:101e48006e2f00004f660000662000002020000072
:101e5800202000002020000020200000202000007a
:101e6800202000002020000020200000202000006a
:101e780020200000202000002045000053430000df
:101e88005b78000044200000202000003d20000076
:101e980043750000727300006f720000204200005a
:101ea800616300006b20000020200000202000005b
:101eb800202000002020000020450000534300009f
:101ec8003b78000053200000202000002020000064
:101ed8003d20000053630000616e00002066000092
:101ee800726f00006d2000004375000072730000df
:101ef8006f72000020200000202000002020000039
:101f080020200000202000002020000020200000c9
:101f1800202000002020000020450000534300003e
:101f28005b78000045200000202000003d200000d4
:101f380043750000727300006f720000204e0000ad
:101f480065780000742000004c6900006e65000090
:101f580020200000202000002045000053430000fe
:101f68003b6800006841000020200000202000009d
:101f78003d2000004d6500006d2000004164000018
:101f880064720000657300007320000020200000c8
:101f98002020000020200000202000002020000039
:101fa8002020000020200000202000002020000029
:101fb800202000002020000020450000534300009e
:101fc8005b78000046200000202000003d20000033
:101fd80043750000727300006f720000205000000b
:101fe80072650000762000004c6900006e650000f4
:101ff800202000002020000020450000534300005e
:102008003b680000685200002020000020200000eb
:102018003d2000005265000061640000204d000072
:10202800656d00006f72000079200000202000001c
:102038002020000020200000202000002020000098
:102048002020000020200000202000002020000088
:1020580020200000202000002045000053430000fd
:102068005b78000047200000202000003d20000091
:1020780043750000727300006f7200002048000072
:102088006f7200007a200000416200007320000097
:1020980020200000202000002045000053430000bd
:1020a8003b680000685700002e2e00002e2000001c
:1020b8003d20000057720000697400006520000090
:1020c8004d6500006d6f000072790000202000004f
:1020d80020200000202000002020000020200000f8
:1020e80020200000202000002020000020200000e8
:1020f800202000002020000020450000534300005d
:102108005b7900003b780000482000003d2000007b
:1021180043750000727300006f72000020500000c9
:102128006f73000069740000696f00006e20000082
:1021380020200000202000004d6500006d6f000089
:10214800727900002041000064640000726500009c
:1021580073730000657300003a200000202000001f
:102168002020000020200000202000002020000067
:102178002020000020200000202000002020000057
:102188002020000020200000202000002020000047
:1021980020200000202000002045000053430000bc
:1021a8005b7800004a200000202000003d2000004d
:1021b800457200006173000065200000696e000030
:1021c8002044000069730000706c00006179000011
:1021d80020200000202000002024000033300000d0
:1021e800303000002d330000374600004620000044
:1021f8003d2000005465000078740000204d000068
:1022080061700000706900006e6700002020000007
:1022180020200000202000002020000020200000b6
:1022280020200000202000002020000020200000a6
:10223800202000002020000020450000534300001b
:102248005b7800004b200000202000003d200000ab
:10225800457200006173000065200000696e00008f
:10226800204c0000696e000065200000202000005e
:102278002020000020200000202400003338000027
:10228800303000002d340000464600004620000093
:102298003d2000005465000078740000204f0000c5
:1022a8006e6c000079200000446100007461000039
:1022b8002020000020200000202000002020000016
:1022c8002020000020200000202000002020000006
:1022d800202000002020000020450000534300007b
:1022e8005b78000053200000202000003d20000003
:1022f80053630000726f00006c6c000020550000f2
:102308007020000020200000202000002020000075
:10231800202000002020000020240000353000008c
:10232800303000002d3700004646000046200000ef
:102338003d20000054650000787400002f43000021
:102348006f6c00006f720000204400006174000090
:102358006120000020200000202000002020000034
:102368002020000020200000202000002020000065
:1023780020200000202000002045000053430000da
:102388005b78000054200000202000003d20000061
:1023980053630000726f00006c6c00002044000062
:1023a8006f7700006e200000202000002020000031
:1023b80020200000202000002024000038300000e9
:1023c800303000002d440000464600004620000042
:1023d8003d2000004544000053200000436f0000ea
:1023e8006c6f0000722000004461000074610000fe
:1023f80020200000202000002020000020200000d5
:1024080020200000202000002020000020200000c4
:10241800202000002020000046690000726d0000a6
:1024280077610000726500002055000070640000ac
:1024380061740000652000006f6e000020520000eb
:1024480065730000657400002069000066200000c4
:1024580050410000302d00005041000033200000a2
:10246800677200006f7500006e640000656400000c
:102478002c200000736500006e64000020490000f5
:102488006e740000656c000020480000455800008c
:102498002061000074200000393600003030000050
:1024a8002d3800002d4e00002d3100002e20000098
:1024b80020200000202000000c00fa0030079800bf
:1024c80041079800224f98002e489000ff4f500077
:1024d8004d0036002e4890000004e0004c00350006
:1024e8000000eb0010079800430037002e489000ca
:1024f8000080fb000002b100c300dd001e00900058
:1025080000804000000278004f80de0080027800e2
:1025180006922000171020000600be0000004200ae
:1025280081804a009201800000f0a4008180d200de
:1025380001d0fe00104f780002d0fe000000eb0032
:1025480020079800260037001e4078000004e000ad
:102558000f003d00ce0090001e009000008040005b
:10256800c700dd003e0190002e00900000004100f1
:10257800808040000080210080804000008023008f
:1025880000804000f1c7b300014878000e00370012
:10259800ce0090001e00900000804000c700dd00c3
:1025a8003e0190002e009000000041008080400015
:1025b80000802100808040000080230000804000cf
:1025c8008040eb00014878001e4078000040400041
:1025d800004f78002e0090000000e80020079800c7
:1025e8002e009000e50f5000d7ff34001e00900029
:1025f8000000e800100798001e009000e70f500048
:10260800baff340003003700000000000100370063
:10261800000000000080fa00000006000600fa0032
:10262800000f780011079800424798009e0090001c
:10263800000520008088b9009e004000008023002b
:1026480000804000ce409000014878000080fa00e9
:10265800000006000a00fa001007980021079800f9
:1026680032079800430798000000eb00000f78003d
:10267800220037001e007800cf80de003e01900067
:10268800ce01900000004100818049009201800045
:1026980000f0a4008180d20001d0fe0090407800b4
:1026a80002d0fe00c0c5b30080cf50001800320031
:1026b8001e007800cf80de003e019000ce01900021
:1026c80000004100818049009201800000f0a400d0
:1026d8008180d20001d0fe001040780002d0fe00b8
:1026e800804078001e0090001e00400001417800e4
:1026f800ae009000c9ff07001e0fe800f00420009c
:102708009e007800808f5000daff34000100370007
:10271800000000000080fa00000006000200fa0035
:10272800004f78009e80fb00000f20008080600032
:10273800f0092000808f5000050034001e80fb0047
:102748004400de00004078007043b0000400370009
:102758001e80fb004400de00004078000043b0000b
:102768000080fa00000006000200fa00004f78001e
:102778001e80fb006f006000e90f50000400340069
:102788009e4078006fc060007043b00003003700bf
:102798009e4078006fc060000043b0000080fa00df
:1027a800000006002030000020200000203000003b
:1027b80020200000203000002020000020300000f1
:1027c80020200000202000002020000030300000e1
:1027d80030300000202000002020000020200000d1
:1027e80020200000203000002020000020300000c1
:1027f80020200000203000002020000020300000b1
:1028080020200000202000002020000030300000a0
:102818003030000020200000202000002020000090
:102828002020000020200000302000002020000090
:102838003020000020300000302000002020000060
:102848002020000020200000202000003030000060
:102858003020000020200000302000002020000050
:102868002020000020200000202000002030000050
:102878003020000020300000202000002030000020
:102888002020000020200000202000002030000030
:102898002020000020300000303000002020000000
:1028a8002020000020300000202000002030000000
:1028b80020200000203000003020000020200000f0
:1028c8002020000020200000202000002020000000
:1028d80030200000303000003020000020200000b0
:1028e80020200000202000002020000020300000d0
:1028f80030200000202000003020000020200000b0
:10290800302000002020000020200000203000009f
:10291800303000002030000020200000202000007f
:10292800202000002030000030200000203000006f
:10293800302000002020000020200000202000007f
:10294800202000002030000030200000203000004f
:10295800302000002020000020200000202000005f
:10296800202000002030000030200000203000002f
:10297800302000002020000020200000202000003f
:10298800202000002030000030200000203000000f
:10299800302000002020000020200000202000001f
:1029a800202000002020000020200000203000000f
:1029b80030200000303000002020000020200000df
:1029c80020200000203000002020000020300000df
:1029d80030200000202000003020000020200000cf
:1029e80020200000202000002020000020300000cf
:1029f800302000003030000020200000202000009f
:102a0800202000002030000020200000203000009e
:102a1800302000002020000030200000202000008e
:102a2800202000002020000020200000303000007e
:102a3800202000002030000030200000202000006e
:102a4800202000002020000030200000203000005e
:102a5800302000002030000020200000202000004e
:102a6800202000002020000020200000303000003e
:102a7800202000002030000030200000202000002e
:102a8800202000002020000030200000203000001e
:102a9800302000002030000020200000202000000e
:102aa80020200000203000002020000030300000ee
:102ab80030200000202000002020000020200000fe
:102ac80020200000203000002020000030300000ce
:102ad80020200000203000002020000020200000de
:102ae80020200000202000002020000030300000be
:102af80030200000203000002020000020200000ae
:102b0800202000002030000020200000203000009d
:102b1800302000002030000020200000202000008d
:102b2800202000000001000002030000040500004e
:102b38000606000004030000050000000102000072
:102b48000304000001000000060500000201000067
:102b58000006000003040000020500000502000052
:102b6800010300000400000006000000020100004c
:102b7800060300000504000005040000060000002c
:102b88000301000002040000050200000601000025
:102b9800000300000402000000010000060300001a
:102ba8000503000000060000020100000405000003
:102bb80001000000030400000506000002020000f6
:102bc80000040000050100000603000006040000e0
:102bd80000050000020100000301000002040000db
:102be80005060000030000000602000001030000c3
:102bf80000050000040400000102000003000000ba
:102c0800060500008000fa00889fbe008a9fbe006b
:102c18008c9fbe0081708000f00f20000080600053
:102c280000f0a0008070880091708000f00f2000f4
:102c380000806000907088002000200050558900b6
:102c48000000eb0040558900f023200090558900d2
:102c58000000eb00000f780007003700008021001b
:102c68009e00400000802300808040000040eb0070
:102c7800804878001e0fe800f1ff22001e0078004f
:102c8800810f5000f5ff34000000eb00100798009a
:102c9800190037001e0090006100b80000f0a7007e
:102ca8001100200006002800170020000001d000b5
:102cb8008601d000030041004220a8008780480018
:102cc8004200a9004220ae004200a8000080d300c4
:102cd8000042eb00a30180000101780000007800a9
:102ce800a201880004487800a30188001e00900013
:102cf8000000e800100798009e009000f0ff2400f4
:102d0800808f5000e3ff34000000eb00200798009c
:102d1800320037000000eb00300798002900370028
:102d28002e0090000000e000030032002e0090000a
:102d3800f40f5000090034002e009000c400dd009c
:102d48003e0090008080400000802200808040008b
:102d5800a0c2b30080487800170037003e009000fa
:102d6800e20f5000030034003e009000ec0f5000ca
:102d7800090034002e009000c400dd003e009000e1
:102d8800808040000080220080804000a0c2b30004
:102d980080487800080037002e009000c400dd004d
:102da8003e0090008080400000802200808040002b
:102db80000c2b300804878003e0090000000e800a0
:102dc800300798003e009000ef0f5000d4ff340009
:102dd8002e0090000000e800200798002e009000c8
:102de800f70f5000cbff34000000eb00e0568900dd
:102df80010002000f056890060002000005789006c
:102e080010002000105789000000eb0020578900af
:102e1800f003200030578900f00320004057890054
:102e2800c003200050578900c00320006057890064
:102e38000000eb00705789006057810080578900b7
:102e480070578100905789000000eb00a057890057
:102e58000000eb00b057890020c0b300004f980075
:102e68000000eb0040279800100020005007980051
:102e78000000eb00600798000000eb007007980066
:102e88000000eb00000f98000000eb00100f980006
:102e9800600020005027980010002000602798004c
:102ea8000000eb0070279800f0c7b3004057980067
:102eb80060002000002f980090012000102f98003b
:102ec800f0002000202f980030002000302f9800bc
:102ed800f0032000300f98000e2a90005457890004
:102ee8000000eb00400f9800080037004e089000e3
:102ef800804078004e0890008005b0000177780087
:102f08004e0890000000e800400f98004e0890001e
:102f1800e60f5000f5ff34002e2890008003b00023
:102f280002c5b3001100200063fd07002e289000a1
:102f3800e003b00042c5b300110020005efd0700a9
:102f48002e2890004004b00032c5b30011002000c4
:102f580059fd07002e289000a004b000a2c3b300ba
:102f68001100200054fd07002e2890000005b00035
:102f780002c2b300110020004ffd07002e28900068
:102f88006005b00002c3b300110020004afd07002d
:102f98002e289000c005b00002c3b3001100200025
:102fa80045fd07002e2890002006b00002c3b3009c
:102fb8001100200040fd07002e2890008006b00078
:102fc80002c3b300110020003bfd07002e2890002b
:102fd8008003b000e2c4b3009100200036fd070072
:102fe8002e289000e003b00052c4b30091002000e6
:102ff80031fd07002e2890004004b00082c5b300c0
:10300800910020002cfd07002e289000a004b0009d
:1030180042c5b3009100200027fd07002e2890002c
:103028000005b000a2c3b3009100200022fd0700f4
:103038002e2890006005b00002c2b3009100200065
:103048001dfd0700f0568100e30f500022003200fa
:10305800e30f500005003e00e10f5000120032005f
:10306800e10f500016003e0009003700e50f500040
:1030780025003200e50f50001d003900e60f500012
:1030880027003200e70f50002b00320030003700d5
:103098002e289000c005b00092c4b3009100200013
:1030a80005fd0700300037002e289000c005b0004d
:1030b800a2c4b30091002000fffc07002a003700db
:1030c8002e289000c005b000c2c4b30091002000b3
:1030d800f9fc0700240037002e289000c005b00036
:1030e800f2c4b30091002000f3fc07001e00370073
:1030f8002e289000c005b00032c5b3009100200012
:10310800edfc0700180037002e289000c005b0001d
:10311800a2c5b30091002000e7fc070012003700a9
:103128002e289000c005b00042c5b30091002000d1
:10313800e1fc07000c0037002e289000c005b00005
:10314800f2c3b30091002000dbfc07000600370043
:103158002e289000c005b000f2c3b30091002000f3
:10316800d5fc070000000000c05781000000e800ff
:10317800c0578900055781005527980016578100c8
:103188006627980021578100712798008057810091
:103198000000e00004003200805781000000e900d0
:1031a8008057890019003700905781000000e0001f
:1031b800060032000080eb0080578900905781009c
:1031c8000000e9009057890010003700605781001f
:1031d80080578900705781009057890010578100e7
:1031e800f40f500003003c00105781000000e80075
:1031f8001057890010002000600798001000200078
:103208007007980010002000500798006e0090008a
:103218000000e0006b013a00105681000000e00059
:10322800c6003200b05f80006f006000b0558900b2
:10323800c05f80008080e800f01f200000806000f0
:10324800c0558900b05581000000e000bd003a007b
:1032580071568100f00f20000080600000004000df
:1032680080007800c0558100808f5000b500320082
:1032780071568100f00f200000806000800040003f
:1032880000c022000080400090007800f00f20006d
:1032980080806000000e2000808f500003003a00fc
:1032a80010002000e0558900990037007156810010
:1032b800f00f2000008060008000400000c0220065
:1032c8000080400090007800f00f200080806000af
:1032d800000f2000808f500003003a0010002000eb
:1032e800d05589008a00370071568100f00f200000
:1032f800008060008000400000c022000080400084
:1033080090007800f00f200000806000fd0f500052
:103318000b003a00d05581000000e00004003200a4
:103328003e0890000030a000300f980004003700dd
:10333800be0890007003200000806000300f9800e5
:1033480071568100f00f200000806000800040006e
:1033580000c022000080400090007800f00f20009c
:1033680000806000fb0f50000b003a00d055810030
:103378000000e000040032003e0890000020a00099
:10338800300f980004003700be089000b0032000fa
:1033980000806000300f980071568100f00f200007
:1033a800008060008000400000c0220000804000d3
:1033b80090007800f00f200000806000fc0f5000a3
:1033c8000b003a00d05581000000e00004003200f4
:1033d8003e0890000010a000300f9800040037004d
:1033e800be089000d003200000806000300f9800d5
:1033f80071568100f00f20000080600080004000be
:1034080000c022000080400090007800f00f2000eb
:103418008080600030022000808f50000b003a004e
:10342800d05581000000e000040032003e08900002
:103438000000a000300f980004003700be0890007c
:10344800e003200000806000300f98007156810072
:10345800f00f2000008060008000400000c02200c3
:103468000080400090007800f00f2000808060000d
:10347800b0032000808f50000b003a00d055810027
:103488000000e000040032003e0890000040a00068
:10349800300f980004003700be089000f0022000aa
:1034a80000806000300f980071568100f00f2000f6
:1034b800008060008000400000c0220000804000c2
:1034c80090007800f00f2000808060002004200029
:1034d800808f50000a003a00d05581000000e000bb
:1034e800040032003e0890000050a000300f980001
:1034f800030037003e0890007f006000300f9800fe
:103508000000eb00e05589000000eb00d055890071
:10351800705681000000e8007056890071568100dd
:10352800f00f2000808f5000060036007056810092
:103538000010b1007056890002003700f003200027
:10354800300f9800305781004057890090708000f4
:103558006c006000c200dd00107080006f00600029
:10356800810070003e08900000806000305789009c
:1035780031578100f0032000808f500002003a008c
:103588000e29900052578900505781000000e00032
:1035980003003200505781000000e90050578900ad
:1035a8003157810040578100808f500003003a0056
:1035b800505781000000e0007d003a00c0578100ac
:1035c8000000e800c057890030578100640060009f
:1035d8000000e00015003a004057810064006000d8
:1035e8000000e00003003a00505781000000e000ae
:1035f8000e003a0010578100f40f500003003c0001
:10360800105781000000e8001057890060578100ba
:10361800805789007057810090578900100020005a
:103628006007980010002000700798006e00900056
:103638000000e0005c003a00305781006100600043
:103648000000e00010003a0040578100610060006f
:10365800004078000004e00003003a005057810061
:103668000000e00008003a0000578100ed0f50000c
:1036780003003c00005781000000e8000057890063
